:100E5A0067656365726C69206775633D2025640A5E
:100E6A000069736C656D206261736172696C6900F7
:100E06000E2A000000C8012C01C2025802EE03207F
:100E1600023C000002380015023A0014023E0000AF
:0C0E260002280014022400000222000038
:03000B00020DC41F
:100DC400C0E0C0D0753800753915308DFDC28CC2B5
:100DD4008D758AB0758C3DD3E5399400E53864800F
:100DE4009480400AD28CE539153970021538D3E560
:100DF400399400E5386480948050CFD28DD0D0D01F
:020E0400E032DA
:100B5C00E4F5A0C290C2B6C2B7C2B4C2B5C2977512
:100B6C009850758921758DFDD28ED299D2A9D288D3
:100B7C00D28AD2AF758AB0758C3D30B60E7405250D
:100B8C0025F525E43524F52420B6FD30B71920B71A
:100B9C00FDE52545247004F524F52574FB2525F584
:100BAC002574FF3524F52430B47B20B4FD053DE5D8
:100BBC003D7002053CE53C7050E53D14B407005017
:100BCC0048900BDB75F003A4C58325F0C583730235
:100BDC000BF0020BF5020BFA020BFF020C04020CD9
:100BEC0009020C0E75A001802075A003801B75A056
:100BFC0007801675A00F801175A01F800C75A03F83
:100C0C008007E4F53CF53DF5A0E53D25E0242AF808
:100C1C00E6F52608E6F5277BFF7A0E795A85260B32
:100C2C00F50C12086220B503020B8620B5FDE53FDA
:100C3C006401453E7033D3E5299400E52864809423
:100C4C00804013B290E529152970021528D28C30FA
:100C5C008DFDC28D80E0D3E5299400E52864809455
:100C6C008050D3C297C29080FED297D28C308DFD2B
:100C7C00C28DE525152570021524C3E5259401E5E3
:100C8C00246480948050E2C28C7BFF7A0E796B12C4
:0E0C9C000862C297C28D753E00753F01808DC3
:03000000020D38B6
:0C0D3800787FE4F6D8FD75813F020D7F46
:10080000E517240BF8E60517227808300702780B65
:10081000E475F001120D02020CAA2000EB7F2ED22B
:10082000008018EF540F2490D43440D4FF30040BD0
:10083000EF24BFB41A0050032461FFE518600215CD
:1008400018051BE51B7002051A30070D7808E475C2
:10085000F001120D02EF020CF0020E337403D20706
:100860008003E4C207F5178B088A09890AE4F518A2
:10087000F51AF51BE51860077F2012083B80F57517
:1008800019FFC201C200C202C203C205C206C208E9
:10089000120809FF700D3007057F0012084CAF1BCE
:1008A000AE1A22B4255FC2D5C204120809FF24D0B3
:1008B000B40A00501A75F00A781830D50508B6FF4A
:1008C0000106C6A426F620D5047002D20380D924DE
:1008D000CFB41A00EF5004C2E5D204020A4CD20190
:1008E00080C6D20080C0D20280BCD2D580BAD205E8
:1008F00080B47F2012083B2002077401B518004025
:10090000F1120800FF12083B020874D208D20680D8
:1009100095120800FB120800FA120800F94A4B7001
:1009200006791D7A0B7BFF20022EE518602A7E00D7
:100930008E82758300120CC360060EEE651970F08E
:10094000C2D5EBC0E0EAC0E0E9C0E0EE120A93D005
:10095000E0F9D0E0FAD0E0FB120CAAFF60AAEBC0ED
:10096000E0EAC0E0E9C0E012083BD0E02401F9D0A1
:10097000E03400FAD0E0FBE5190460DCD519D98039
:10098000877BFF7A0A798FD202809C791080027966
:1009900008C206C2088008D2D5790A8004790AC242
:1009A000D5E519047002F519E4FAFDFEFF120800FE
:1009B000FC7B08200113120800FD7B1030000A1296
:1009C0000800FE120800FF7B20EC3382D592D55040
:1009D00013C3E43000069FFFE49EFEE42001039D64
:1009E000FDE49CFCE4CBF8C201EC700CCFCECDCC86
:1009F000E824F8F870F38017C3EF33FFEE33FEED11
:100A000033FDEC33FCEB33FB994002FB0FD8E9EBF1
:100A1000300105F8D0E0C448B201C0E00AEC4D4E08
:100A20004F78207B0070C2EAB5190040BCC0E012CC
:100A30000A95D0F0D0E0200104C4C0E0C4B201C0E7
:100A4000F0120824D0F0D5F0EB020874120D120950
:100A50001153098B5808E24C08DE42098F4F099761
:0F0A60004409974908F743099D550981460981C3
:100A6F00450981470B3D5008E62D08EA2E090D2B4D
:100A7F0008EE23090B200B262A08A64800000905BB
:100A8F003F3F3F00790AA2D5200314300509B91062
:100A9F00020404B9080104A2D52006025001042063
:100AAF0002689202B518005034C0E07F203003195D
:100ABF007F30A20272067205500F120AECC202C2F8
:100ACF0006C205C2087F30800F300503E9C0E0126F
:100ADF00083B300503D0E0F9D0E0B518CC3005174E
:100AEF007F30B9100C12083B7F583004077F788095
:100AFF0003B9080312083B3002057F2D02083B7F24
:100B0F00202008F87F2B2006F322920280CF286E38
:100B1F00756C6C2900D2011208003001F8C20178FF
:100B2F001830D50108F60208A62D5043495812086F
:100B3F00002403B405004001E4900B389312082CF5
:0D0B4F00743A12082CD20375180402098BA9
:100D4400020B5CE493A3F8E493A34003F68001F25E
:100D540008DFF48029E493A3F85407240CC8C333B0
:100D6400C4540F4420C8834004F456800146F6DF7F
:100D7400E4800B0102040810204080900E06E47EFB
:100D8400019360BCA3FF543F30E509541FFEE49374
:100D9400A360010ECF54C025E060A840B8E493A33B
:100DA400FAE493A3F8E493A3C8C582C8CAC583CA66
:100DB400F0A3C8C582C8CAC583CADFE9DEE780BE1E
:010E320000BF
:100CAA00BB010689828A83E0225002E722BBFE0248
:090CBA00E32289828A83E493227B
:100CC300BB010CE58229F582E5833AF583E02250E6
:100CD30006E92582F8E622BBFE06E92582F8E22230
:0D0CE300E58229F582E5833AF583E493224A
:100CF000BB010689828A83F0225002F722BBFE01E3
:020D0000F322DC
:100D0200FAE6FB0808E6F925F0F618E6CA3AF622F2
:100D1200D083D082F8E4937012740193700DA3A370
:100D220093F8740193F5828883E473740293686084
:060D3200EFA3A3A380DF84
:100E3300EFB40A07740D120E3E740A309811A89984
:100E4300B8130CC2983098FDA899C298B811F6301F
:070E530099FDC299F59922F7
:00000001FF
